S01C000062746D6573685F76656E646F725F736572766572332E7333373F
S21400000000000120514500004D4500004D45000010
S214000010811F00004D4500004D4500004D45000085
S2140000204D4500004D4500004D4500004D45000083
S2140000304D4500004D4500004D4500004D45000073
S2140000404D450000D97600004D4500004D450000A6
S214000050796F00001D770000E5760000E976000065
S214000060DD7600004D4500004D4500004D45000082
S2140000704D4500004D4500004D4500004D45000033
S2140000804D4500004D4500004D4500004D45000023
S2140000904D4500004D4500004D4500004D45000013
S2140000A04D4500004D4500004D4500004D45000003
S2140000B021770000E1760000AD9300004D4500007A
S2140000C05D7700004D450000D15F00004D45000003
S2140000D04D4500004D4500004D4500004D450000D3
S2140000E04D4500004D4500004D4500004D450000C3
S2140000F04D4500004D4500004D45000010B5054C2F
S214000100237833B9044B13B10448AFF300800123BE
S214000110237010BDC00000200000000060CA000070
S21400012008B5034B1BB103490348AFF3008008BD75
S21400013000000000C400002060CA0000A3F5803A5A
S214000140704700BF174B002B08BF134B9D46FFF7A9
S214000150F5FF00218B460F461348144A121A0AF080
S21400016061F90E4B002B00D098470D4B002B00D0AA
S21400017098470020002104000D000D48002802D0FA
S2140001800C48AFF300800AF01BF92000290003F0AA
S214000190E3FA0AF001F900BF0000080000000000C2
S2140001A00000000000000120C0000020A819002068
S2140001B00000000000000000BFF34F8F0549064B0B
S2140001C0CA6802F4E0621343CB60BFF34F8F00BFF0
S2140001D0FDE700BF00ED00E00400FA0510B502469A
S2140001E000B3114B1968888890421BD398889042B8
S2140001F081BF0968996001209880998898680024D2
S21400020028B904B198604FF6FF729A8009E08A42D6
S21400021004D00131006889B20124F1E70CB19A805C
S214000220986010BD0020FCE7E8060020114A916A9D
S21400023001F1704303F5F813B3F5006F0CD2D2F852
S2140002402838A3F17E62A2F58432B2F5605F03D24D
S2140002500968094A914203D00023037083607047FF
S2140002601968064A9142F7D1012202709A684260E4
S2140002709B69F3E70000E10FAD1007B007B0CD5E55
S21400028010B50C4630B90448FFF7D0FF04300423FD
S2140002902060A380002010BD9C010020064BD3F8F0
S2140002A02828A2F17E63A3F58433B3F5605F01D2FC
S2140002B0536A1847002070470000E10F0D4B10B43A
S2140002C0D3F82848A4F17E63A3F58433B3F5605FC2
S2140002D00BD2246BA4F17E63A3F58433B3F5605F81
S2140002E003D2A36B5DF8044B184740F201105DF88B
S2140002F0044B70470000E10F0B4BD3F82828A2F1FF
S2140003007E63A3F58433B3F5605F09D2126BA2F166
S2140003107E63A3F58433B3F5605F01D2D36B1847D1
S21400032040F20110704700BF0000E10F024BD3F807
S214000330F80080B2800270470081E00F7FB50F4A58
S21400034003466D4602F11006106851682C4603C439
S2140003500832B2422546F7D15A1E0DF10F010F336F
S21400036011F8010912F8014F844204D19A42F7D1DC
S214000370012004B070BD0020FBE700BFBCA5000054
S21400038070B5154E306810BB144B154CE41A154B5F
S2140003901C4424F4FF6424F00704FFF7C7FF8442DC
S2140003A014D2656BA5B1FFF7C1FF854210D2FFF7E7
S2140003B0BDFF05F1400383420AD82846FFF7BEFF7B
S2140003C030B1EB6933F0080302D03460306870BD9A
S2140003D004F50064E1E700BF4001002010000020A3
S2140003E0C0000020ABD20000034B044A9979117577
S2140003F000221A60704700BF8C0D00208006002087
S21400040030B500228BB01346D91003F00704415CC8
S2140004102141CC0741BF0AA98918013201F8283CBE
S2140004200133252BF0D10E4C0023D91003F007051D
S214000430415C2941C9075FBF0AADB3FBF2F102FB7D
S2140004401131491948BFD9B203F1010358BF11F859
S214000450281C04F8011B252BE7D10BB030BD00BFCC
S214000460AA06002010B5034CA01DFFF7C9FF002305
S214000470236010BD8C0D0020084A10B5136840F2AA
S214000480E24404FB01316043536800F5807001EBE1
S214000490500118441160506010BD00BF8006002057
S2140004A0D0B50C4CE38C0A20584309F0D9FC06461C
S2140004B0A08C0F4609F0D4FC074B002209F03AFD49
S2140004C002460B463046394609F05EFE09F044FF08
S2140004D02083D0BD800600200000F43F10B5094CF4
S2140004E0B4F80710A079FFF7C7FFA368064AB4F868
S2140004F00D10D184C3F30F239384FFF7D1FF00239D
S214000500236010BD8C0D002080060020837DDB0755
S21400051001D5808A7047D0E901239B1A44BF828A9E
S2140005209B1898B270470000084BD3F8F020D3F819
S214000530F4300270110A120C82701A0AC2701A0C79
S2140005401B0E417002714371704700BF0081E00FBF
S2140005504369416C80691439DA1DB2FBF1F201324D
S21400056003EBC202043000EB4200DA1CB2FBF1F2ED
S21400057003EBC2030333B3FBF1F3023301FB0300C7
S2140005807047F7B507460E4600257C6CA8196442EE
S21400059080EA06031C4003D02C46204603B0F0BD7C
S2140005A0FB6B01225B6901A99847019B0133F4D1DB
S2140005B00435EAE703460846EFF3108172B6DB6BB4
S2140005C0014ADB6811601847840D002030B5446886
S2140005D000234FF0FF329C4202D10023037230BD4D
S2140005E0016801EBC30541F833206A600133F2E786
S2140005F02DE9F0434668002E47D0056898464FF030
S214000600000CA946AE4655F83C40C4F31307013427
S2140006100CF1010C01D0B94218D0B4450EF1080E09
S214000620F1D12F46002403E0B44207F1080713D0A7
S21400063055F83430013304F10104F5D1C1F3130148
S21400064041EA0851C7E90012BDE8F08341EA0851C3
S214000650CEE90012BDE8F083B8F1030F15D00023F1
S21400066003E0B34209F108090FD055F83340C4F34C
S2140006700754032C03F10103F3D1C1F3130343EA38
S2140006800853C9E90032BDE8F08301230372BDE8D0
S214000690F08300BF064B5A685B68064B41F6713222
S2140006A01A649A6822F001029A600020704700BF20
S2140006B000300E4000000E40034B9A6822F0010204
S2140006C09A6000221A64704700000E4070470000CF
S2140006D02C4B024641F67130196C30B518642A4826
S2140006E044684068986840F00100986001201A61EC
S2140006F0D860D869440789B2154608D59A6822F0AA
S21400070001029A6009B100221A64204810E0022013
S2140007101F4CD860D869C00700D554B9D86910F006
S21400072002000BD09A6822F001029A6019B91948A3
S21400073030BD013CEEE700221A64F8E73CB99A683F
S21400074022F001029A600029F1D01864EFE79C6855
S21400075024F001049C6001B118640F4BD3F8E43018
S2140007601B0E0A3303F01F03012101FA03F323F0E3
S21400077003031A449542DBD055F8043B0133F9D005
S2140007800648D5E700000E4000300E4021E000F09D
S2140007908096980024E000F00081E00F0EE000F064
S2140007A0036813F07E0F03D1406820F07C4070474A
S2140007B013F078001CBF03F07F03D81F704737B5CF
S2140007C001F10C044369054601A901222046984719
S2140007D0BDF8043000930122AB696946204698476D
S2140007E003B030BD202A0B681EBF4FF0FF3191408A
S2140007F08B43590801F055315B1A03F033319B08DF
S21400080003F033330B44017803EB13130A4403F06D
S2140008100F334FF001314B43A2EB13630370704765
S21400082037B504461B22011D00250DF107008DF883
S2140008300750FFF7D7FF63689DF80720B2EBD36F2A
S21400084003D123F0784003B030BD1B2204F1080129
S2140008508DF80750FFF7C6FFA0689DF80730B3EB8A
S214000860D06F06BFC04320F078404FF0FF30EAE775
S21400087003684BF29A22B2EB134F10B5044613D11D
S2140008809BB2012B13D1FFF7CBFF01300CD0E068F1
S2140008904FF6FF72B2EB104F4FEA104309D180B209
S2140008A0C01A18BF012010BD2368013303D00420EE
S2140008B0F9E70220F7E70320F5E700000C4B10B538
S2140008C00C4CE41A0C4B1C4424F4FF6424F007047C
S2140008D0FFF72CFDA04202D80024204610BD20467B
S2140008E0FFF7C6FF0128F8D904F50064F0E700BF5B
S2140008F010000020C0000020ABD20000F0B5054676
S21400090087B00026EC69013CB44203D80C4620466A
S21400091007B0F0BD01B14C1E6F6C2868EB6B05226A
S2140009205B6901A907FB0400984701A8FFF7A0FF31
S2140009300128ECD901362146E4E7F0B5046887B013
S21400094006460025091B446CB1FBF4F4F3693068D5
S214000950776C5A1E954206D3716C306801FB040012
S214000960143007B0F0BD0134B4FBF3F103FB1144BF
S214000970F36B05225B6901A907FB0400984701A8F1
S214000980FFF776FF0128E7D90135DFE72DE9F04FBD
S21400099014469946C36B89B007465B6960680D4686
S2140009A0012205A99847FB6B01225B6904A928462A
S2140009B09847059B5A1C06D10020A0756075A36059
S2140009C009B0BDE8F08F0122A275227E049904EBDF
S2140009D0C2024FF0000CD561A2F820C06668AE4295
S2140009E0C1F3D31001F07F020BD14FF0FF3320602C
S2140009F02275A360237D043B022B25D80020A0751A
S214000A00DEE726688642207D18BF84F816C090422E
S214000A101CBF0020A07503F07F0001288CBF0020BB
S214000A200120012A8CBF0022012290421CBF002216
S214000A30A27511F07E0F03F07E0300F0E880002B15
S214000A40D8D10023A375D5E711F07E0F0FD1FB6B2D
S214000A5002225B6906A92846984706A8FFF7A0FE6B
S214000A60237D032B3AD8DFE803F03434040904A8C6
S214000A70F4E7227E04EBC202CC211184664AD35CE2
S214000A80129A049E1370237E16F07E0B04EBC303AB
S214000A900CBFC6F3C16600265FFA86FAB3F820805C
S214000AA083F822A0BBF1000F00F08C8000231B22ED
S214000AB004A906A88DF81830FFF794FE9DF81830A4
S214000AC0049AB3EBD26F0CBF012300236375042294
S214000AD094E0227E04EBC2021084CFE7227E04EB71
S214000AE0C202062B1084C9D90123C9E794F816B0B0
S214000AF0BBF1000F00F08880B8F1000F09D1DEB11D
S214000B00617E0123E37500293CD19E4218D16676AA
S214000B1014E07B6CA818594285EA000C1CEA010F09
S214000B201CBF0021A175591E01405B1A984569D863
S214000B30A37D002BE3D167E0E37DA3B94FF0000B64
S214000B4028F003002844104418F0030F7B6C18BFED
S214000B5004305B4285EA0002134203D02946384639
S214000B60FFF7EBFEA060A27D12B123694344236128
S214000B70237E012B0DD801332376B9F1000F0BD15C
S214000B80A07D1DE7012EEED0BAF1030F08BFA376B5
S214000B90D4E70023A375F3E7002AF1D0E37D002B0A
S214000BA0EED0BBF1000FEBD1032EE9D0A1684B1CB1
S214000BB0E6D0129B0093224601233846FFF7E6FE56
S214000BC0A075DDE7FB6B02225B6906A928469847FD
S214000BD0202206A90DF10F008DF80FB0FFF702FED8
S214000BE01A2207A9FFF7FEFD9DF80F30079AB3EB10
S214000BF0926F0CBF0123002363750822637D002BD0
S214000C007FF474AF0023A3754FF0000BABE7002B07
S214000C103FF4F0AE15E700BF84A6000013B50C46FF
S214000C20002121760093616813462246FFF7AEFE48
S214000C3018B1E37D03B1A07EA075A07D02B010BD03
S214000C4070B5002586B004460562E369AB4202D85B
S214000C50206A06B070BD666C2068E36B05225B698F
S214000C6001A906FB0500984701A8FFF701FE012829
S214000C709EBF236A013323620135E6E7F0B50025FF
S214000C8087B004462E46E369B34202D8284607B02A
S214000C90F0BD636C276803FB0677E36B05225B6990
S214000CA001A93846984701A8FFF7E2FD012809D8B0
S214000CB007F114012046FFF764FC636C143B834283
S214000CC008BF01350136DEE7F0B50446466CE36B37
S214000CD000685B6987B00D46052201A906FB050082
S214000CE0984701A8FFF7C4FD012804D801A8FFF71C
S214000CF097FD07B0F0BD29462046FFF7FFFD676C5D
S214000D00E36B064620685B69052201A907FB06001F
S214000D10984701A8FFF784FD431CEAD0B54238BFC8
S214000D200130E6E7034BD86B80F04000C0F380103C
S214000D30704700BF00300E4008B5FFF7F3FF20B144
S214000D40024AD2F8C830002BFBD108BD0000C643CB
S214000D5008B5FFF7F1FF024B5868C0F3014008BD25
S214000D6000300E400C4B984210D90C4B984210D9CC
S214000D70022201230A490B640A49D1F8003123F004
S214000D80807343EA0263C1F80031704700221346BD
S214000D90F0E70122FBE700BF0048E8010090D0031F
S214000DA00000C84300400E400F4B5B680F4B30B549
S214000DB000221C46C9B21D798D4202D11D688542AB
S214000DC00DD20132052A03F10803F4D103220649A5
S214000DD04B6823F0407343EA02634B6030BD04EB7C
S214000DE0C2025279F3E700BF00000E40E4A60000FE
S214000DF038B5054C41F67133256C2364FFF7D4FFF4
S214000E000DB10023236438BD00000E4042EA0323E0
S214000E10B3F5007F39D016D8B3F5807F31D007D828
S214000E205BB3012B1ED00022134603600A60704796
S214000E3040F201129342F6D1184BD3F824321A0E20
S214000E40C3F30743F1E7B3F5407F22D040F2013207
S214000E5093420ED040F201229342E4D10F4BD3F8D6
S214000E60283202E00D4BD3F82432C3F30722DBB25C
S214000E70DBE70A4BD3F82832E1E7084BD3F81C32FD
S214000E80F3E7064BD3F81C32D9E7044BD3F82032ED
S214000E90EBE7024BD3F82032D1E700BF0081E00F2A
S214000EA02F4B1A6FD96C11F0010F02F0060242D0D8
S214000EB0002A40D013284FD9143813288CBF10238B
S214000EC008232749013BCA6C180322F47F4240EAF4
S214000ED003231343CB64234BCA6C1B88C2F3032241
S214000EE02833013202EB820003EB5303B3FBF0F32B
S214000EF0C86C013B072B28BF072320F0EE6040EAB2
S214000F00036343F48013CB64174BB3F90030002B14
S214000F1010DB2833500800EB420203EB5303B3FB0D
S214000F20F2F30A6D072B28BF072322F0700242EA6D
S214000F3003130B657047D96C01F00101114304D10E
S214000F40092809D90A380928B8E7DB6C13F0010329
S214000F50B7D01AB92728B1E70423B2E70023B0E7D1
S214000F6000300E40F6060020F806002070B51D4D35
S214000F70D5F82828A2F17E63A3F58433B3F5605F25
S214000F80E0B004D34FF40174204660B070BD136B1C
S214000F90002BF7D05B6A4FF4C07269460020984772
S214000FA004460028F0D140F20126D5F82828A2F100
S214000FB07E63A3F58433B3F5605FE3D2126BA2F1D0
S214000FC07E63A3F58433B3F5605FDBD2936A0021BA
S214000FD068469847B042E8D040F20323984218BFCC
S214000FE00446D1E70000E10F104A0B46D2F8281855
S214000FF0A1F17E62A2F58432B2F5605F10B40FD222
S214001000096BA1F17E62A2F58432B2F5605F07D269
S2140010100C69074A0146A44600205DF8044B604769
S2140010204FF481705DF8044B704700BF0000E10F7D
S2140010302807002037B50446684680E8060003C83F
S214001040251D85E805002373069B0B4A2361BDF822
S2140010501C30A38200232360136853B119461B6813
S214001060002BFBD10C609088013080B2908003B0DA
S21400107030BD1460F7E700BFE006002037B50D4628
S2140010801446FFF7ABF870B1036973B1818A4FF667
S214001090FE72914209D10095ADF8044069460120E0
S2140010A0984703B030BD0120FBE70E20F9E703693F
S2140010B037B514460D46828A63B14FF6FE718A42F2
S2140010C008D100200090ADF804006946984728B182
S2140010D003B030BD2B6000202280F9E7009B2B6018
S2140010E0BDF804302380F3E738B50D461446FFF705
S2140010F075F840B122462946FFF7D9FF10B92B688C
S21400110003B9208038BD0120FCE7000007B503794D
S2140011100193054A0368009306CA02230830FFF7C6
S21400112089FF03B05DF804FB5CA700002DE9F041E1
S214001130054688B09846036908460E4617469847FF
S214001140002869D1D8F804305B0A012B02464FEA22
S214001150530300F10100F8D898F8034098F80230DD
S2140011602403DB0203F4006304F480541C43B8F841
S2140011700030C3F30A032344540304F460441C44BD
S2140011802A4B03934FF0000827F078430DF1070031
S2140011901B2202A902938DF80780FFF723FB9DF818
S2140011A00720029B8DF80780FF4343EAC26302A92B
S2140011B01B2227F0784704930297FFF713FB9DF84E
S2140011C00720029B6FEA044443EAC26305936FEA72
S2140011D014444FF0FF3306930794AB69012207A926
S2140011E006F110009847AB690446012205A906F1EE
S2140011F008009847AB69404518BF0446012204A979
S214001200301D9847AB69404518BF0446012203A924
S2140012103046984700B934B13146284608B0BDE894
S214001220F041FFF7CCBA08B0BDE8F08101009AB2F1
S214001230034B5A6D12B95865A3F85810704700BF93
S2140012408006002070B50C4690B9FFF799F858B1A3
S214001250436B084D03F14006186859682A4603C2D6
S2140012600833B3421546F7D1034B23600423A3800B
S214001270002070BD44010020640100202DE9F041EB
S21400128016460546FFF742F9B04228BF304686B2FA
S2140012900F46B046B8F1000F09D12EB1AB7DDA0784
S2140012A044BF23F00103AB753046BDE8F0812B68E0
S2140012B0AC8A69681C44641AA4B2444528BF4446F4
S2140012C02246384609F0A0F86A682B68A98A2244A4
S2140012D0194427448A4238BF1346A8EB04041FFA71
S2140012E084F86B60D6E7F8B51F46038A04461646B0
S2140012F0EBB9C57DDDB10123013D0B700222C5753A
S21400130000F11001FFF7BAFFE37D9BB1228ABA42D3
S21400131028BF3A4631462046FFF7B0FF238A1B1AFD
S2140013202382E37D13B9638A1B1A6382F8BD002308
S2140013300B70EBE7638A2382E8E72DE9F041044669
S2140013400F461146FFF7E2F8A38A181A86B28E42B5
S21400135028BF0E46B046B8F1000F0BD13EB1D4E917
S21400136001329A4202BFA37D43F00103A3753046C3
S214001370BDE8F0812368A58AA0681D442D1AADB289
S214001380454528BF45462A46394609F03DF8A26835
S2140013902368A18A2A4419442F448A4238BF134638
S2140013A0A8EB05051FFA85F8A360D4E7F8B5044650
S2140013B016461F4611B3FFF7A9F8A58A281A80B269
S2140013C0012829D9E37D63B1E068658A05702D0A96
S2140013D007D02268A38A01301344984228BF1046DB
S2140013E0F4E700236382A368E360022204F112019B
S2140013F02046FFF7A2FFE37D0133E3753A46314608
S2140014002046FFF79AFF638A03446382E37D13B99D
S214001410238A03442382F8BD0020FCE710B5044667
S21400142044EA010313F00303084609D1934201D1AD
S214001430002010BD54F8231040F823100133F5E7C0
S2140014409200214608F0E0FFF2E7000013B50379AA
S214001450124A03330446019300F14403009306CA7C
S21400146002231430FFF7E6FD238A0193E368009316
S21400147094E80600237A04F12C00FFF7DBFD237ABC
S21400148022792168A4F8450004F1470084F8443026
S21400149002B0BDE8104008F0B7BF00BF54A7000078
S2140014A070B50C4C0C4B06460D46D4E9010183E89A
S2140014B003001846FFF72AFE084BD4E9040102226F
S2140014C01A7283E80300DE601D821846BDE870408D
S2140014D0FFF7BCBF60A60000B8140020C8040020B8
S2140014E038B5202204460D460C30002108F09AFF3D
S2140014F04FF0FF33C4E90035A36038BD2DE9F04F47
S2140015002DED028B0F4689B0044600254FF0FF31C3
S2140015101046C7F3130B904699468DF80B50FFF70D
S214001520DFFF5F456AD1E1682B468B420DD0A2688B
S21400153002EBC30052F83320561C0FD0C2F313023E
S21400154093450BD141684D1C0AD1237C002B57D103
S214001550464809B0BDEC028BBDE8F08F0133E4E7E6
S2140015604046FFF7BDFF0DF10B0301224146204622
S214001570FFF754FB0028E8D09DF80B3089F80030C0
S2140015800020E6E72068361A606CB6FBF0F63FE00F
S2140015905046FFF7A5FF18EE102A0DF10B03514633
S2140015A02046FFF73BFB8446B8B1B91C03D0DAF8F7
S2140015B00030BB4211D19DF80B30DFF8B4E089F85B
S2140015C00030BEE80F0045460FC5BEE80F000FC549
S2140015D09EE8070085E807006546DAF8081032E05E
S2140015E0002DB5D05F45CBD199F80030D8F804204F
S2140015F0394604F10800FEF7FBFFC1E7BB1CA4D187
S214001600E66A701CBED1616A2046FFF777F9064687
S214001610BB1C18BF012308EE103ADFF854A0636A1B
S21400162025680193636C03FB0655E36B03A95B69AE
S21400163005222846984703A8FFF71AF905F1140370
S2140016400093194600254A1C05D0636C009A5B423D
S2140016504A4013429CD031462046FFF74FF9019B83
S214001660B342BDD0002DBDD10646D8E70BE000F052
S214001670A00E00202DE9F04F4FF0FF3300258B46DB
S21400168000F108064FF6FF71C0E9091387B004465B
S214001690C362056205633046FEF798FF2046FFF7F3
S2140016A0CFFA00285BD1D4F824804FF6FF79C845DE
S2140016B014BF454600250027E3699F4252D32046C3
S2140016C0FFF7BEFA002833D1B34D2046FFF7D6FA0F
S2140016D007E12368E26B606C576901A9052200FBED
S2140016E00530B84701A8FFF7C3F80128074603D01E
S2140016F0C31EDBB2012B12D829462046FFF7E4FAB8
S214001700012F2168676C024608BF0132E06B434632
S21400171007FB0511FFF70AFD2046FFF791FA013592
S214001720E3699D42D5D32046FFF78AFA0028BAD04F
S21400173000254FF6FF73C4E908534FF0FF38C14643
S2140017402F46E3699F423FD3A5EB0805012D5FD8DE
S214001750636A4FF6FF7293426FD1904DB5E704F17E
S2140017604008DDE7636CE26B2068D2F814C001A97C
S214001770052203FB0500E04701A8FFF779F80228D9
S2140017800FD0C84515D10BF10102606C216804F139
S214001790400300FB0511E06BFFF7C8FC2046FFF78F
S2140017A04FFAE36901350137B5FBF3F203FB125537
S2140017B082E729462046FFF787FAB0F1FF3F14BFBD
S2140017C002465A460132E0E7636CE26B2068D2F8C4
S2140017D014C001A9052203FB0700E04701A8FFF794
S2140017E047F8824601A8FFF71BF8BAF1010F0DD89B
S2140017F04845236A38BF6762804503F1010328BF66
S21400180080468542236238BF05468146013798E701
S2140018104FF6FF7363620025E3699D4298D2676CBA
S2140018202068E36B05225B6901A907FB0500984762
S21400183001A8FEF7F5FF0135EEE7E26B676C20685E
S214001840556901A9052207FB0300A84701A8FEF772
S214001850E7FF626A616C2368514D01FB0233143363
S214001860A3624FF0FF33E3622A460DF103036FF0E5
S21400187001012046FFF742FE002836D1AD68E5623A
S21400188029462046FEF77DFE206320B9E16A204601
S214001890FFF753F8E06229462046FFF74EF8054664
S2140018A0A36A9D4223D16369656C2046A5F11402A4
S2140018B0DD1CB5FBF2F503EBC5050335B5FBF2F50C
S2140018C0FFF7DCF90235A84280463ED2616A204620
S2140018D0FFF714F80027064604F1400AAF4218D373
S2140018E0304D284607B0BDE8F08FA56AC7E7294601
S2140018F02046FEF746FE236B03442946074623632D
S2140019002046FFF71AF80546002FC9D1C4E90B0791
S214001910C6E7474512D3626C236802FB0639E36BC1
S21400192005225B6901A94846984701A8FEF778FF9B
S214001930534602464946E06BFFF7F8FB3146204621
S214001940FEF7DCFF01370646C8E73046FEF73EFEE8
S214001950154DA16AE36A994201D04B1C01D10025BE
S214001960B3E62846FFF7BCFD0DF103030122294626
S2140019702046FFF753F930B1D5E900129DF8033041
S2140019803046FEF735FEA9684A1CE3D16968204652
S214001990FEF7D3FF0146DDE703E000F016E000F0B7
S2140019A0740E002013E000F0CC0E00202DE9F84F56
S2140019B0930007EE903A404B41F671341F6C1C645E
S2140019C03E4C666864689C6844F001049C60BFB244
S2140019D022F040458C460024A54201D800232EE084
S2140019E0DFF8E8E000EB8406D3F81C8018F0010F5F
S2140019F008D0BEF1000F02D16FF002031FE00EF117
S214001A00FF3EF1E7BEF1000FF6D001221E61DA605C
S214001A10D3F81CE01EF0040F0FD1C6F30A06C6F575
S214001A200066B608A5EB040E764528BF76464FEA54
S214001A308609CEB93444CC44CEE74FF0FF331E4C73
S214001A40A56825F00105A5600FB1002525645A1C80
S214001A502ED07BBB17EE902A08F0F4FC002818481E
S214001A6008BF0020BDE8F88F0CEB090AE04658F8DE
S214001A7004EBC3F818E00822DFF850E0DA60D3F889
S214001A801CB01BF0010F05D0BEF1000FB4D00EF154
S214001A90FF3EF4E7BEF1000FAED0D3F81CE01EF018
S214001AA0020F02D1D045E2D1C4E76FF00103C6E7CA
S214001AB00448D7E70448D5E700000E4000300E4043
S214001AC010E000F021E000F024E000F0809698009E
S214001AD02DE9D34FDDF82890BDF82CA004460F461C
S214001AE090461E46FEF77AFB8346BBF1000F01D0F8
S214001AF0BC4205D94FF6FF74204602B0BDE8D08F31
S214001B009BF808309E421CD1DBF804003246414662
S214001B1008F098FCA8B9B9F1000FEDD00DF102025B
S214001B2001A95846FFF7C3FA58B9019949B1BDF85B
S214001B300230534505D15246484608F083FC00283B
S214001B40DAD00134DBF800B0A4B2CEE738B50C46E4
S214001B5011462568AD1A2A46014408F083FC256024
S214001B6038BD00002DE9F84F07EE901A4B4B4C4954
S214001B70DFF84C91DFF84CA1D9F800605B1A4949B0
S214001B800B4423F4FF63A0EB060823F007039845F5
S214001B9005461446CAF800807DD38718FEF78EFEE9
S214001BA008B9FEF7C3FB874272D8D9F800000719B8
S214001BB0B7F5806F03D93C4B82221A7066E0DFF8D7
S214001BC0FCB0224617EE901A584408F01DFC374B1E
S214001BD0C9F800701A6822B9332F57D9DBF83420B9
S214001BE01A601868804508EB07041ED884421CD982
S214001BF000F110039C4249D30644751B5D442C4AF1
S214001C002B4605F1100153F8040B42F8040B8B42E7
S214001C10F9D12748FEF792FB10B9234B8422CCE774
S214001C201022FF21284608F0FDFB224D224B286893
S214001C3007F00307E41B1C4058B908EA0300C0F588
S214001C4000612144FEF758FB2C6040B1164B8522FC
S214001C50B3E7A04203D2211A00F50060F2E7D9F8F4
S214001C6000201649DAF80000D21BFEF727FBD9F849
S214001C700020DAF800301249D21B044613440F48FD
S214001C80CAF80030FFF762FF002CDFD1BDE8F88FFE
S214001C90054B832291E7044B87228EE7C000002085
S214001CA010000020ABD200002D0B0020BC0D002041
S214001CB0AC0D0020FC12002000F8FFFFF80E0020FC
S214001CC0F8120020300B002037B50023114C00938B
S214001CD0437A6060D0E90021206803F0C4F8238CC2
S214001CE0DB050CD563680C4D1B7A2A789A4206D021
S214001CF0012B06D0022B08D063681B7A2B7003B02A
S214001D0030BD206803F084F8F6E7206803F086F814
S214001D10F2E700BF00130020DD06002013B50D4BD0
S214001D200D4C1B8BADF804300128ADF8003004BF15
S214001D3002238DF8043001A908BF0423206808BFD9
S214001D408DF8003002F072FF2068694602F086FFC8
S214001D5002B010BD60A6000000130020034B002256
S214001D601A6118680122032102F0A4BC00130020A7
S214001D701FB502238DF80630064B5A8B5969186832
S214001D800332ADF804206A4602F0F6FF009805B06C
S214001D905DF804FB0013002010B51E4C194623699D
S214001DA086B023B3A2F10800084322D101AA03217A
S214001DB0206802F0DDFF636860615B7A23769DF839
S214001DC00430DA1F53425341627E63F30002039BE2
S214001DD0E361BDF806306276638304F118010220E1
S214001DE02369984720680122002102F0C9FF06B047
S214001DF010BD02F17F40014305D10021012006B04D
S214001E00BDE81040184712F4A0411ABF0021032075
S214001E10FF20F4E700130020F0B5194C194D87B0E9
S214001E20637A0133DBB2272B88BF252320466372F3
S214001E30FFF74AFF627D14492868E768667C4FF41E
S214001E400073023202F072FF6B68104A5B7A06F08B
S214001E500106D15C03913046FFF760FF01230022A4
S214001E60059303992868009204AB049702F026FCB9
S214001E7010B1FFF773FFD3E7054B2B6107B0F0BD3A
S214001E80DC00002000130020F000002029A700003E
S214001E90212E0000EFF3108072B67047004870479E
S214001EA000F049020E49D1F8942002F00702042AF5
S214001EB00BD8022A0FD811D10A4BD1F80001C0F373
S214001EC004200130B3FBF0F07047074B0748052AA3
S214001ED008BF0346F1E74FF40043EEE7024BECE79A
S214001EE000400E4000F04902C0EA210160F5900073
S214001EF008B5FFF7D7FF044BD3F80831C3F3082320
S214001F000133B0FBF3F008BD00400E4013B50246A7
S214001F100C46FEF707FFF0B122B9104BD3F800319C
S214001F20FFF7C0FFFEF7FEFEA8B1FEF711FF90B167
S214001F300A4BD3F80031FFF7B5FF094B40221A6170
S214001F401CB10190FEF7F8FE0198002102B0BDE832
S214001F501040FEF74DBF02B010BD00BF00400E405F
S214001F6000300E40044B054A9A60D3F8882042F4AD
S214001F707002C3F88820704700ED00E00000000003
S214001F8008B5FEF719F97047FEE7000038B5C0F34C
S214001F900323013B04460D46092B1CD8DFE803F05B
S214001FA033231C1B0526291B2C30184B0022C4F398
S214001FB0043442B11649D1F84401C00703D4D1F81D
S214001FC040010242FBD103F1424303F5801304EBC8
S214001FD0C3039B001D6038BDFFF78AFFFEF7C2FEF5
S214001FE00C4B0022E3E70C4B0022E0E70B4B0122F0
S214001FF0DDE70B4B1022DAE70A4B4FF48032D6E7C8
S214002000094B0022D3E7024B0022D0E7B0400E4037
S21400201000400E40B8400E40C0400E40E0400E402B
S214002020E8400E40F0400E4050410E4000F00F00D9
S2140020300138072844D8DFE800F0040F1943232DA1
S2140020404335244BD3F8943003F00703023B052BAB
S21400205038D8214AD05C70471E4BD3F8803003F046
S2140020600703013B042B2FD81C4AF3E7194BD3F880
S214002070843003F00703013B042B25D8184AE9E710
S214002080144BD3F8883003F00703013B042B1BD80E
S214002090144ADFE70F4B1B6F13F0010F0CBF07202E
S2140020A0092070470B4BD3F85C3103F03003202B2C
S2140020B00CD0302B0CD0102B14BF012007207047FB
S2140020C000207047052070470120704704207047A5
S2140020D00820704700400E408BA6000091A6000026
S2140020E096A6000091A6000000B962B670470000F0
S2140020F02DE9F0410D4F06460D4614460CB9BDE8D5
S214002100F081EFF3108872B623462A4631463846E9
S214002110FFF74CF903464046FFF7E6FF002BEDD0ED
S214002120E41AA4B21D440026E8E700BF680C0020AD
S21400213013B5002301F10804ADF80430ADF806002D
S21400214021461A4651F8080C083170B90BB1ADF8A3
S214002150042004220DEB020101200834FFF7C8FF1B
S21400216054F8101C39B902B010BD51F80C3C1A4492
S21400217092B20123E6E734F80C2C0020EDE70000CD
S2140021807FB50130002380B2CDE90101CDE90433EB
S2140021906946044B009304200392FFF7C9FF07B07B
S2140021A05DF804FB8A01002008B5C3680020984744
S2140021B0024B1868BDE80840FFF796BF840D002064
S2140021C02DE9F04FDFF8E4A287B09AF800300092CD
S2140021D00546894603F0FF088BBBFEF76FFB0746F4
S2140021E0FEF7A4F867B1A84BA84CD3F800B0C3F824
S2140021F0008094F83430C61B53B323689F4206D041
S2140022000026009B40461E7007B0BDE8F08F63684E
S2140022109E42F5D1A2689E4B9A42F1D1E368062B06
S214002220EED1626940F26C739A42E9D1E26B994B47
S2140022309A42E5D1C4F8188001238AF80030934FFB
S21400224097F83430002B40F083800026B046D8E75D
S214002250A36B01934022414604F1100008F0E2F817
S214002260019BA36340F26C736361894BA3600623F2
S214002270E36004F10800C4E90076FEF7A7F9854B91
S214002280E36304F1400001F095F800285ED1636C2A
S21400229013B16268B2FBF3F394F84320E361002ABB
S2140022A0AED0666C002EABD0002BA9D02368B3FB53
S2140022B0F6F206FB1233002BA2D16768B7FBF6F3E3
S2140022C006FB1373002B9BD17048FEF741F987423B
S2140022D096D3636940F63472CC3B934290D8B6F5F9
S2140022E0007F8DD369480321FEF764F9E36BD4E9D8
S2140022F000011B689847E36B0646DB680220984798
S214002300C6B962485946FFF7B5F9634B9842064688
S21400231004D15E485946FFF7ADF9064656B9636CD8
S214002320276A5A48143B5F43FEF712F95B4B874215
S21400233038BF1E46B6FA86F35B09E06B84F8343085
S214002340FFF732FF002E3FF477AF59E74346A3E787
S214002350DFF84CA10121384645F48025FEF72AF91E
S21400236004AB524629463846FFF7C8F8044600280C
S2140023703AD19DF81030032B36D0022B37D0DAF83E
S2140023801060F86BFFF710FF002C7FF45EAF009B29
S2140023901B78B342FFF459AF97F83480B8F1000FBA
S2140023A03FF453AF39480121FEF704F929463C4A69
S2140023B036480DF10B03FFF7A1F8054660B99DF806
S2140023C00B30012B74D1DAF81030B34276D1DAF83C
S2140023D004A03546FB6B65B9F86BFFF7E5FE002DEC
S2140023E07FF433AFF6B20CE72E4C0026C9E704267E
S2140023F0C7E75B69012203A9504698472849039B13
S2140024000968C3F3D31291423BD113F07E0F2CD050
S21400241003A8FEF7C5F94FF0040BA84228BF2846CC
S2140024200328D3440446A5EB00050BD9FB6B8208B2
S2140024305B6949465846984724F003039B4404F0DA
S214002440030499445CB1FB6B01225B6904A95846FE
S21400245098474846224604A907F0D6FFA1445146AD
S2140024600A48FEF76AFA8246B4E7FB6B02225B690B
S21400247004A95046984704A8FEF792F94FF0080BB7
S214002480CBE7094DA8E700BFBC030020F80D0020ED
S214002490C00D00200CA7000013E000F002E000F0E2
S2140024A0480E00200BE000F022E000F0F00D0020C7
S2140024B0034D0448022B18BF05468DE7024D8BE7F7
S2140024C00CE000F00BE000F011E000F00D4AD2F84E
S2140024D02838A3F17E63A3F58433B3F5605F10B5A7
S2140024E00FD2EFF3108072B6074B197800241C70D9
S2140024F0FFF7FAFD29B1D2F82838BDE810401B6A6C
S214002500184710BD0000E10F880D002001282DE9B6
S214002510F34740F045818B88012B40F043810B68E0
S2140025201C7814BBA14BA24D1C60A24B1C60A24B96
S2140025301C60A24B1C60A24B1C60A24B1C70A24BE2
S2140025401C60A24B1C602B78022B01D1FFF7BEFF4C
S2140025509F4A01232B70002313709E4A13709E4AD5
S2140025601370204602B0BDE8F087032C40F00681C9
S214002570994B8F4E1C78002C40F08D803378002BC2
S21400258000F0F0808F4B1B78082B40F08780DFF838
S2140025901C82D8F8000090B9904DD5F82838A3F1E1
S2140025A07E63A3F58433B3F5605F55D34FF40170B3
S2140025B041F20804A0420CBF862480246BE010F091
S2140025C003071ABFC7F10407FFB2274600EB070A46
S2140025D0BAF5806F00F2CC80814BDFF8EC913A467A
S2140025E0FF21184407F01EFF7E4AD9F80030126813
S2140025F0C8F800A00AEB0301914200F2BD806D4AC4
S21400260015681D445544DFF8B8A125F4FF65DAF8CF
S214002610000025F00705854207D9291A00F5006055
S214002620FDF76AFEB0B9CAF80050D8F80010D9F81D
S2140026300000FEF7D9FCD9F80030D8F800205B4936
S21400264013440546DB1B6648C9F80030FFF77EFAE0
S214002650002DA1D085241EE0FEF788FC0028A7D117
S214002660D5F828280190A2F17E63A3F58433B3F54C
S214002670605FEFD2126BA2F17E63A3F58433B3F5ED
S214002680605FE7D29369012101A898470028E1D14D
S214002690504B01221A700023337062E7002B63D080
S2140026A04B4B1B78002B61D0484F3B6843B9434BDC
S2140026B04D4918681022FDF701FE0028EBD0C9E747
S2140026C013F003021CBFC2F10402D2B203EB0209EC
S2140026D0B9F5806F4CD84548DFF8DC801844FF21F8
S2140026E007F0A0FE424A434BD8F80050C7F80090C7
S2140026F09B1A414A134423F4FF6323F00703AB42BB
S21400270038D8A944FEF7DAF808B9FDF70FFE814578
S21400271032D83B68DFF8A8901D44D9F8000025F4AD
S214002720FF6525F00705854208D9291A00F50060DF
S214002730FDF7E2FD00288DD1C9F800503A682B4914
S214002740D8F80000FDF7BAFDD8F800303A681F49FF
S214002750054613442548C8F80030FFF7F7F9002D62
S214002760A5D077E7812496E7842494E7802492E72F
S214002770822490E787248EE783248CE7042C13D1E9
S2140027801E481323022143700170FEF751FD1C4AB8
S2140027901C4B128905329A801B4A1A6042789A713D
S2140027A00024DEE60D24DCE60624DAE6280B00200C
S2140027B02E0B002018150020300B0020BC0D00202A
S2140027C0FC12002084010020340B0020F8120020A8
S2140027D02C0B0020910100202D0B00200000E10FA3
S2140027E0280700201C150020AC0D0020F80E002045
S2140027F010000020C0000020ABD20000A00D00207A
S214002800800600208C0D0020253300000D4AD2F8EB
S2140028102838A3F17E63A3F58433B3F5605F10B563
S2140028200FD2EFF3108072B6074B197801241C7094
S214002830FFF75AFC29B9D2F82838BDE81040DB6902
S214002840184710BD0000E10F880D00202DE9F04F5D
S214002850012891B004D00024204611B0BDE8F08FC6
S2140028608A88002A00F0D981AA4F97F800A0BAF10A
S214002870000F00F0D481A84D2C78002CECD1DFF8A6
S214002880CCB29BF80040002CE5D1A44E306802EB99
S2140028900009B9F5806F02D982242C70DCE7DFF8D6
S2140028A098820968404407F0AFFDBAF1020FC6F8F7
S2140028B000903CD0B9F1030FCDD99948FDF7B6FC8E
S2140028C00378D8F80020012B47D14368190E012958
S2140028D003D1C3F307430A2B47D9924B9A4240F0E1
S2140028E0E8808368DA033ED502233B70FFF78EFF4D
S2140028F08D4BD3F82828A2F17E63A3F58433B3F575
S214002900605F0BD2126BA2F17E63A3F58433B3F53E
S214002910605F03D2936809A900209847834B099A01
S2140029201A60834B0A9A1A603B78022B93D1DFF821
S2140029302092336899F80020082A4CD1DFF80082EC
S2140029407B49D8F80000096803F0030AC218A2EB16
S2140029500A028A420BD983249FE7724CA2420CBF1C
S2140029608624842499E7862497E7882495E76F4A87
S21400297017681F4407446F4BA7EB0A07186827F42D
S214002980FF6727F00707874209D9391A00F5006064
S214002990FDF7B2FC674B08B185247EE71F603168FF
S2140029A0D8F80000A1EB0A01FEF71EFB3268D8F843
S2140029B000305A49A2EB0A02074613445E48C8F89C
S2140029C00030FFF7C3F8002FE6D199F80030002B4F
S2140029D07FF441AF01E0002A6DD133687F2B7FF68C
S2140029E03AAFDFF86081D8F8000028BB4E4BD3F82A
S2140029F02838A3F17E63A3F58433B3F5605F15D260
S214002A000123CDE90A0009A88DF82430FDF70EFC55
S214002A100A9B1A0E7BD0012A03D1C3F307430A2B65
S214002A2075D9414BD3F828389B6B9847434B1860B1
S214002A3007F000FDC8F800003B4FD7F82828A2F1A1
S214002A407E63A3F58433B3F5605FA5D2936A3B4AF1
S214002A50D8F800001168984700289DD1D7F8283884
S214002A60A3F17E63A3F58433B3F5605F21D201231F
S214002A70CDE9070032688DF8183006A8D8F800A00F
S214002A800392FDF7D3FB079B190E12D00129039A78
S214002A9003D1C3F307430A2B0BD9234B05A9D3F85D
S214002AA0283800915F6B244909AB5046B847002888
S214002AB050D08424F1E622490A681A440A601A4A69
S214002AC0D2F82818A1F17E62A2F58432B2F5605FD2
S214002AD013D21C48CF6A184A1B490068B8470746F5
S214002AE032680E491448FFF731F840F203239F423C
S214002AF006D101238BF80030AEE640F20227EFE75E
S214002B0040F201239F423FF460AF8024C5E64FF4B5
S214002B10C0708BE72E0B00202D0B0020280B00200A
S214002B20A8010020EB17A6030000E10F18150020EF
S214002B301C150020FC120020280700204C0B00204B
S214002B40340B0020480B0020380B00202C0B0020F4
S214002B50840100209DF8243089F800300393FDF7A7
S214002B600FFC039B074648B3D0F834A0002B3FF475
S214002B7073AE002306930DF11302042306A9352035
S214002B808DF81330FFF71CFB069BDB071AD599F868
S214002B900030082B14D0BAF1000F42D05346102252
S214002BA00CA903F12800039307F04CFC20B9039B03
S214002BB00A9A1B6A9A4205D889246EE68246D5E7A9
S214002BC0364BECE797B14FF400613846FDF794FBBF
S214002BD000287FF4E1AE2AF4FF604FF4006120F095
S214002BE00700FDF789FB00287FF4D6AE99F8003081
S214002BF0082B18D12A4B2B4A186820F4FF6323F0C1
S214002C0007034FF400611360FDF776FB00283FF4DE
S214002C1023AEC1E640F202272FE00D241CE68124F5
S214002C201AE6002FCFD1204F204BDFF890907B6024
S214002C30D9F82828A2F17E63A3F58433B3F5605F44
S214002C40BFF4AAAE936A1A4AD8F8000011689847EB
S214002C5000287FF4A1AED9F82828A2F17E63A3F558
S214002C608433B3F5605FD5D2D2F82C903368114A1E
S214002C70D8F800003946C847074632680E490D485E
S214002C80FEF764FF40F203239F423FF432AF40F268
S214002C9001239F423FF4E0AD37E700BFA4A6000043
S214002CA018150020FC120020380B0020651B0000C1
S214002CB04C0B002028070020280B00200000E10F06
S214002CC008B50F4B0F4C1B784FF000556BB1FFF754
S214002CD09DFD0D4B2B600123A360236823F4E06366
S214002CE043F480632360FDF767FA2B600123A3603B
S214002CF0236823F4E06343F480632360FDF75CFA03
S214002D009101002000500E4002020FF010B5164C44
S214002D10A37E5B0626D4FFF721F8A18C226840F23A
S214002D20E24303FB01222260A37A94F84F20134467
S214002D302522B3FBF2F002FB10332289A372013284
S214002D40636822810A2202FB01336360238B5A1ECA
S214002D5022833BB9A27E42F04002A276034A137059
S214002D60FFF7AEFF10BD00BF80060020DC06002087
S214002D70F0B5254CA37E5A0687B040D4234A218955
S214002D8023F0070343F00103A37613681BB1928870
S214002D908A4200D19847A37A1D48234493F82A30E4
S214002DA06375FEF791FFD4E900561A4C1A4A636819
S214002DB05B7A7708D15C0191A5EB56060120FEF7F9
S214002DC0ADFF643502964FF4807300260199ADF886
S214002DD014303D4402AA2068049533468DF80C60F2
S214002DE08DF8166001F092FC0122054631462068F7
S214002DF001F0C6FF2DB1FFF789FFFFF7B9FF07B057
S214002E00F0BD064B2361FAE7800600208C0D0020FB
S214002E108C0600200013002029A70000892F000040
S214002E2002282DE9F0411DD002D8012807D0FEE780
S214002E30032800F09E80FF2800F09B80F7E74E4CAA
S214002E40637C990707D5FEF789FFFEF7E5FF637CED
S214002E506FF341036374637CDA0768D4BDE8F0411E
S214002E60FEF7DABF4B78DB0740F183804C682278A8
S214002E7002F00F08B8F1030F5BD0B8F1050F78D158
S214002E803E498B7B03F00103B3EBD21F4FD10622E2
S214002E90083104F1080007F0D5FA0646002846D1A6
S214002EA0FEF75CFFFEF764FF354D314607465C22B1
S214002EB0284607F0B7FAAB7EA5F8188043F0200343
S214002EC0AB76627E237E43EA0223AB84627F237F57
S214002ED043EA0223EB8494F82330C3F3040385F813
S214002EE04F3094F82330C3F3421385F8503004F182
S214002EF01E001B232B85FDF783FAD4F80E30E27CE8
S214002F00EB60A37C2F6043EA0223227D607D43EAC8
S214002F1002432B61012695F84F30AB722E75E18A7D
S214002F203144FDF7A9FAFFF723FF164B1E70BDE8E4
S214002F30F081124DAB7B03F00103B3EBD21FF6D149
S214002F40062205F1080104F1080007F07BFA0028C4
S214002F50EDD1094C286894F83D204FF400730232F6
S214002F6004F13C0101F0E2FE637C43F0020363746B
S214002F70DDE7FEF7F3FE71E7DC000020001300201B
S214002F8080060020DC06002002282DE9F347804654
S214002F900C460BD003D8012800F0AE81FEE70328CC
S214002FA000F0B081FF2800F0AD81F7E74B78AB4D1D
S214002FB013F0010300F0BC804A68AF7E117892F8E7
S214002FC00090C1F3001161F38207AF76C9F3C00128
S214002FD0C7F30017B94240F0A88009F003010229A0
S214002FE000F0A180032918D0012940F09E804FF000
S214002FF0000A567896B19A48818AFDF787FA0B1A26
S2140030009BB2BAF1000F04D0022B86BF023B9BB2E4
S21400301000239E428CBF002301231E46A97EC9F3CF
S2140030208009C1F3C002914508D082F00102D200A7
S21400303042F0200221F028010A43AA762BB1AB7E8B
S21400304087F0010767F30413AB76AB7E854F13F06A
S214003050200F11D0696D6FF34513AB76002969D048
S2140030603B7895F858207A7043F003033B70B81C01
S21400307007F0CAF900236B657B487A49FDF746FAE4
S214003080AB7E003818BF012060F34103C3F3C002D3
S214003090AB76C3F300139B0043EAC20343EA001077
S2140030A03B787A7823F01C03184338706F4F02324F
S2140030B04FF400733868D2B201F038FEAB7E646815
S2140030C0D90709D56FF30003AB7600236B60FEF7D4
S2140030D04FFE2860FDF7E4F9002E00F0A18023786B
S2140030E003F00303022B05D0032B3DD0012B40F049
S2140030F0978000265A486578818AFDF707FA081AED
S21400310080B226B1022886BF023880B200208542EF
S214003110ABB200F285805248A21C314602B0BDE830
S214003120F047FEF743B99A4663E70026334675E74D
S2140031301E468AE795F828304B48BA1C0DF1070161
S214003140FEF7D1F810F0FF000BD09DF80730002BEB
S21400315008BF4FF001083B78787068F301033B70B6
S2140031608AE74FF00108F6E7A3780C2B0AD80C2B59
S2140031700AD8DFE803F03F2B580909090909600956
S21400318009091800142B7FD0394A12782AB1162B59
S21400319000F09680182B00F0A280364807220270B6
S2140031A0437002210DE033480C234FF0FF320370CA
S2140031B0012343708270037102220023C2704371A0
S2140031C0062102B0BDE8F047FEF732B8617A237AEE
S2140031D0294A43EA012393801346284943F8061BED
S2140031E0D4F80310C2F80610B4F807209A80627A62
S2140031F09A7115E0627B237B1F4943EA02238B808A
S2140032000B461F4A43F8062BD4F80320C1F80620C5
S214003210D4F807205A60B4F80B201A81627B9A72A1
S21400322002B0BDE8F0872A89134B05329A80154A0A
S2140032301A60E278DCE7D4F803303A8C0D48134085
S21400324003F0FF0322F0FF0213430246092102F8AF
S214003250011BC0F8013000235360B2E7800600204F
S214003260500B002020150020680C002000130020C2
S214003270800D0020A00D00208C0D002065040000AD
S214003280DD04000025330000B4F80530B4F8032050
S2140032902048DB08934228BF13462B8515230021C0
S2140032A06FF004046FF027020370072381708171AA
S2140032B04470C27003714471C2710372092180E7C1
S2140032C02279E3781348134003F00303022B18BF58
S2140032D001231722027043708370032171E762791D
S2140032E0A1790D4B42EA01229A800C4A1A60D4F862
S2140032F00320C3F8062093E7094B9B7E9A078FD4DA
S2140033005B078DD4FFF702FD02B0BDE8F047FFF77C
S2140033102FBD00BFA00D00208C0D0020E90300008B
S21400332080060020054A08B5937E43F04003937656
S214003330034B00221A70FFF7C3FC00BF8006002074
S214003340DC060020EFF3108072B67047FEF7CCBEA6
S214003350064A074BD3F88039136F23F00703184348
S214003360044B10671888FDF79BBD00BF00300E4069
S2140033700000C643F40600200D4AD2F8E430D2F826
S214003380E0109B0003F03C03C1F381110B438370F4
S214003390D2F8E03003F03F034370D2F8E830D2F8BA
S2140033A0EC2003F0F003C2F30312134303707047DC
S2140033B000FF0FE013B5044601A8FFF7DDFF9DF8F8
S2140033C00630238040F201136380074BD3F8E430C5
S2140033D01B0E0A33012203F01F0302FA03F3002038
S2140033E0636002B010BD00BF0081E00F2DE9F3411D
S2140033F007460E469046072800F28F80DFE800F06A
S21400340004BB2621B68D8D0E4FF400714FF48075E7
S21400341008230924002E00F0948084E001A8FFF71A
S214003420ABFF9DF80530012B06D94FF400414FF451
S21400343080450E230F24EDE79DF80430022BF4D8C8
S214003440FEE70125022100232C46E3E7002975D07C
S2140034504B4A536A13F0300F62D14A4BDB6B536A08
S214003460D80705D5536A23F0300343F010035362A0
S214003470042502230324424A1566434A13449B004C
S21400348019680029FCD0B8F1000F46D01444A400F7
S2140034902368002BFCD0022F3FD1002E3DD0384BA6
S2140034A05A6AD10741D54FF48062C3F8A82020227B
S2140034B05A665A6A12F0300F0CBF4FF440024FF4AF
S2140034C00002D3F8901032EA0101FAD1520201D577
S2140034D0D3F8A0302A4E012200210220D6F89C7094
S2140034E0FFF784FFD6F89030726A284B22F030023D
S2140034F042F010027262C7F30A07316BFA09033210
S2140035000F2A03EA010328BF0F223B4343EA027354
S214003510336335662368002BFCD002B0BDE8F0812B
S2140035200425022303240026A5E75A6AD3F8902030
S21400353002F44002B2F5400FF8D1C9E70821022391
S21400354003240F480122016602FA03F3D0F8902004
S2140035501A42FBD1B8F1000FDFD00123084A03FA64
S21400356004F4D2F890302342FBD1D6E72021102570
S214003570042305244EE7802140250623072449E737
S21400358000400E4000300E408004F21000F8FF0F9E
S2140035901128F8B505460C4611D104290FD1664806
S2140035A0654E0021FEF7B2FC05F00F056B1E072BDB
S2140035B063D8DFE803F013065E625C84628F002641
S2140035C0F2E75E4D013C0C2C57D8DFE804F0765746
S2140035D05E5656655656565456566F00023C0A2C92
S2140035E04BD8DFE804F03F3C31374A4A4A4A4A069D
S2140035F042000320052501221146FFF7F7FE504C36
S2140036004D48276C41F6713323640021FDF7CCFB4F
S2140036100FB1002323640EB1FDF78EFB494B5D67A7
S214003620FEF766FC0446FEF73DFCFDF79BFBFDF748
S2140036308FFB01462046FDF7DBFBF6B9304601213D
S214003640BDE8F840FEF762BC3F48FDF78BFB022062
S2140036500546D0E73C48FDF785FB0320CBE7012075
S2140036600325C8E700200425C5E70725C7E7374D2B
S214003670A8E7374DA6E704232B60F8BD01221146C4
S2140036800020FFF7B3FE0223F6E70122114610469C
S214003690FFF7ACFE0123EFE7FEF704FCFDF762FB45
S2140036A02C4B0122C3F808260323E5E70122114626
S2140036B00720FFF79BFE0523DEE70023DCE7072C49
S2140036C004D0092CD9D11F4B012201E01D4B00224A
S2140036D01A67D2E7013C072CCFD801A353F824F091
S2140036E0333700007B3600007B36000025370000AD
S2140036F07B3600007B3600001737000001370000DD
S21400370003221049D1F85C3123F0300343EA021358
S214003710C1F85C31B1E7012211460420FFF766FECE
S2140037200122EEE7012211460220FFF75FFE022289
S214003730E7E70022E5E700BF00F0490280400E40C0
S21400374000000E4000400E400148E80188400E4050
S21400375084400E400010C8432DE98048104B5B683B
S2140037605805A5B01ED44FF0005300221A601CA8BE
S214003770FCF75CFDFCF704FED8B1446BFFF746F897
S2140037801E9B590740F15582FCF7FAFDFCF786FDB3
S2140037900446FEF79BFE002C40F0628209E000BF64
S2140037A000500E404FF000531A68022ADBD1002268
S2140037B01A60BFF34F8FBFF36F8FC24BC24C5A6A6B
S2140037C0C24FC34922F480325A62D3F8942022F0C2
S2140037D00102C3F894202068C3F898004FF0005206
S2140037E0C3F89C20451CBB4AC3F8A0208F42256026
S2140037F050D07E1E731A43EA530343EA930343EA08
S214003800131343EA132343EA13430133B3F5807FCC
S21400381038BF4FF48073C3F1000C0CEA010C03EBC5
S2140038200C02974200F22D82072BA2EB07024FF004
S21400383001078CBF4FEAD30E4FF0200EB2FBFEF20C
S21400384007FA02F2013AD2B2A6EB0C06A1EB0C0183
S214003850B6FBFEF6B1FBFEFE3E4407FA0EF7013F4E
S214003860B240B3FA83F33A4302F0FF07C3F11E02F5
S214003870520002F03E0242EA0722924B42F04072A9
S21400388042F001120230C3F89850C3F89CC0C3F847
S214003890A0202060BFF34F8FBFF36F8F894B0522A8
S2140038A0C3F894205A6A42F480325A62BFF34F8FAC
S2140038B0BFF36F8F884B01225A641A681CAF42F41C
S2140038C080721A603846FFF757FD9DF87130012B5D
S2140038D003D89DF87030022B0DD9804B4FF4187228
S2140038E0C3F88C227E4AC3F890227E4AC3F8F022A0
S2140038F07D4AC3F8F8227D4BD3F8A42142F4F8425F
S214003900C3F8A42102229A639A6B02F00F02022ADD
S21400391040F01381DA6C22F0405222F0010242F0AD
S2140039200102DA64D3F8E02042F44072C3F8E020E3
S2140039306F4A0F211180DA6E42F08072DA666D4BA4
S214003940D3F8800900B10420FFF702FD6A4B674DEB
S214003950C8221A80694BA0220F2000241A80FDF787
S2140039609FFA674BAB65CDE91444664B1C947C60AC
S214003970D3F81832C3F30722DBB21E921693EE6C0E
S214003980C6F3017622463346394614A8FDF73EFABA
S214003990D5F8E050C5F3012522462B461DA915A8EB
S2140039A0FDF734FA1E9916984FF416730A1A5A43FE
S2140039B0B2FBF3F3C01828BF01248142C0F0BD80DB
S2140039C0002C40F0BA801D9B159C4FF4167C1A1BE9
S2140039D00CFB02F2B2FBFCF2A4182CBF0122002260
S2140039E0A342C0F0AA80002A40F0A7801C9A14992F
S2140039F0531A0CFB03F3B3FBFCF3C9182CBF0123CB
S214003A0000238A42C0F09980002B40F09680374A07
S214003A10D36D23F4FE4323F0020343EA0023D36569
S214003A20384B022ED3F8302200F02D81032E00F002
S214003A302D81012E14BFD2B2C2F30722120312F454
S214003A40702F7AD12948C36E23F470431A432D4B46
S214003A50C266022DD3F8302200F01A81032D00F042
S214003A601A81012D14BFD2B2C2F30722120312F438
S214003A70702F62D11D4BD3F8E00020F47040024353
S214003A80C3F8E0205A6EA14238BF2146E72922F447
S214003A90FF7228BFE72122F0010242EA41025A667D
S214003AA0DA6B42F48062DA634AF6E852596B5A637C
S214003AB09A6FD207FCD41B6C0E4A13F0030300F077
S214003AC0398521E000ED00E0B4140020B8000020A5
S214003AD0B80000203900011300000E4000400E40E0
S214003AE09A6F0500180100040084320800300E406A
S214003AF0F40600200000C643F6060020F806002064
S214003B00372110B70081E00F0123C2F8B43A634BA7
S214003B109A6FD607FCD41A6C22F003021A649A6FC6
S214003B2012F00102FBD15E480129C0F8B42A08BF92
S214003B305A635B4B0122C3F894275A4CDFF8848102
S214003B401120FEF773FA002101220220FFF74EFC37
S214003B50636A23F001036362534B0025C3F8A05445
S214003B60A36A23F0070343F00603A3624F4BE36206
S214003B70226B4F4B02F07F62134323634D4B63630C
S214003B8004211120FFF704FD444B012140461B6829
S214003B90666AFEF7BBF9FDF7DBF801464046FDF71F
S214003BA027F9D4F80001C0F304200130B8FBF0F088
S214003BB0FDF7D8F80122114646F040560220FFF7DE
S214003BC015FC6662D4F8C8303B4E43F00103C4F8D7
S214003BD0C8303A4BD3F8D830B365042406AA08A9EF
S214003BE035208DF818400895FEF7EAFA089A8DF801
S214003BF01640062312F4803F8DF8173009AC40F0CB
S214003C00C4820DF1170221462C20FEF7D9FA0028AF
S214003C106DD00DF1160207A93C20FEF7D1FA18B1B7
S214003C209DF81C0000F001009DF82A3060F30003A8
S214003C3059E014B9FEF74AFCBBE5FCF777FB844273
S214003C40F8D2FCF773FB04F140038342F2D8204617
S214003C50FCF774FB0028EDD063696BB9FEF736FC01
S214003C60FCF78EFB0446FCF78BFB154B986023682D
S214003C709D46636898479CE59DF87030012BEDD112
S214003C8082E55B00C7E5C2F30742D7E6120ED5E62B
S214003C90C2F30742EAE6120EE8E600BF00300E4026
S214003CA00000C64300400E400000C8432000050048
S214003CB007450BD047A00200005008400081E00FE7
S214003CC000ED00E000F04902B16D02F8011B013B77
S214003CD0FAD29DF8293063F03F038DF829309DF81D
S214003CE02A3043F001038DF82A30C14B5C60C14B8B
S214003CF0C14A9A6000244FF48071C3E900225961DA
S214003D001C82BE4BBE4A5961BE489A60C3E9002277
S214003D101C8200F033FCBC48BC4B03602146BC4B05
S214003D20436000F0A9FCB0A3D3E90023B94EBA4D16
S214003D303060CDE900234FF0FF334FF0FF3200F044
S214003D4091FF02224FF0FF31306800F095FF3C23D0
S214003D509422CDE91C321E9339469623306822946D
S214003D60CDE920441F9300F04DFD30682C702946A5
S214003D7000F0B1FF28B1012330682B70294600F00F
S214003D80AAFF9B4C3068DFF828A301F03DF8B4F991
S214003D9000202978306800F001FC0146306800F009
S214003DA082FF6468002C40F0F2815046FCF7BCFBB2
S214003DB0B37B64F30003B373984B994C994DDFF8CB
S214003DC0F4924FF0200883F801835C2283F8048382
S214003DD0002183F8068304F1080083F8078383F83C
S214003DE0058383F8088383F81D8306F01BFB42F2E5
S214003DF01073E3608C4B8D4AC4E9005342F20153C2
S214003E0023814FF49073338401231370884D8DF80B
S214003E1014300022C9F800201B222A800DF115015B
S214003E2005AA3E20FEF7CCF911230DF113020FA9C7
S214003E3036208DF81330FEF7C3F90DF1120239461D
S214003E4039208DF81280FEF7BBF980BB794B9DF8C0
S214003E50132018681B791C903B71002A00F0A08183
S214003E601B2A28BF1B22531D8DF812300FA9531C86
S214003E700DF175008DF8733006F0C6FA14A8FCF73D
S214003E8053FB6D4A9DF812301288FA5224A99A1CE8
S214003E9051FA82F20021149802F8201C0933BDF86A
S214003EA0541042F81F0C22F81B1C8DF812302023E9
S214003EB00DF1110214A93A208DF81130FEF780F9A1
S214003EC048B95E4B5A8B1B7F8DF852300323ADF8F2
S214003ED050208DF811305A4B5A4800224FF00208F5
S214003EE0C3E90022584B036080F80480FDF70EF902
S214003EF05648574B03601023037280F80480FDF782
S214003F00A5FA5448544B0360544B80F80480C360B1
S214003F1080F80880A0F81080CDE90038434690E885
S214003F2006001430FDF786F89DF81310002900F0FF
S214003F3042810FA8FDF7B4FA49484A4B03604FF098
S214003F40100880F80480FDF7E1F84748474B484AD8
S214003F5003604FF6FE7B08230372C260A0F810B021
S214003F6080F80480FDF772FA4248434A02600C2249
S214003F700272424AC260A0F810B080F80480FDF7D2
S214003F8065FA3F483F4A02604FF0020B3E4AC26065
S214003F900823038280F8048080F808B0FDF756FAFC
S214003FA03A483B4B03603B4BC3600123038280F8D7
S214003FB0048080F808B0FDF749FA3748374B0360AD
S214003FC0374BC3604FF6FE73038280F8048080F898
S214003FD008B0FDF73BFA3348334B0360334BC360FE
S214003FE04FF6FE7368E000BF085500510000000061
S214003FF094010020680C0020800C0020500B00204C
S214004000680B002064A7000030130020991D0000F4
S21400401024130020001300201200002000E100E01E
S214004020DC000020D6BE898E55555500800D002038
S21400403086010020CDA50000D7A5000060A60000E0
S214004040E0060020D8140020DAA500002005002095
S214004050DDA50000FC060020E0A500007EA600000E
S214004060F8140020E3A5000078050020F4A5000061
S2140040700D250000D005002005A600004D280000F4
S2140040801804002016A600009BA6000028060020A4
S21400409027A6000028A700007004002038A600000D
S2140040A081020000C003002049A60000451200005F
S2140040B008130020B8030020038280F8048080F8EC
S2140040C008B0FDF7C3F9B24BB24A1A604FF6FF725A
S2140040D09A809DF81220202A05D8931DAE48637555
S2140040E0394606F091F99DF81120202A06D8931D2E
S2140040F0AA4884F83D3014A906F086F9FDF72EFE8E
S214004100227C617CB2FA82F35B0963F30001237DB3
S214004110617462F30303B27B02F0010262F386135A
S2140041202375637D0BB9062363759D4BBAF804109F
S214004130B068C4F81600998094F83C30042161F306
S214004140030362F3861384F83C3094F83D3013B9C9
S214004150062384F83D30934BB068BAF80420C4F8C0
S2140041603E009A80FDF758FE8F4E904B1B782BB181
S214004170DFF848824046FCF7C9F9F8B98C4A13695B
S21400418023F00403136130BFEFE722469FE5206863
S214004190B060A288A3798AF80630AAF804200BE655
S2140041A008238DF81230834B1A889B78ADF875205B
S2140041B08DF8773062E67F480321BBE6EFF3108484
S2140041C072B600231A460DF119014046FDF78BF82A
S2140041D02046FDF789FF9DF8193013B10023C9F872
S2140041E00030D9F80020EFF3108472B6C2F50173E0
S2140041F09BB232440DF119014046FDF774F80346B0
S2140042002046FDF771FFD9F8000018440328C9F8C6
S2140042100000AFD93488231D9842ABD307D87088E6
S21400422004284FF0000306D0062800F0798100230A
S214004230C9F800309EE732796B8004F1FF3A122A03
S2140042401FFA8AFA18D8012A19D9931E5A4F102B2A
S21400425015D8DFE813F0160014002C0014004600F2
S2140042601400F20014007A00140014001400140065
S21400427014001F011400C500522A00F0CB8006224D
S214004280A5E0BAF1020F40F04981B6F805400022D9
S214004290B4F5007F28BF4FF4007403231146504640
S2140042A03B70A7F80140FDF76BFF2C80BFE7BAF123
S2140042B0040F40F08C80B6F80540A0B2FBF78EFFE6
S2140042C060B1027A7C80022A4FF005010CBF012300
S2140042D00223397041687B70032055E06C800A2207
S2140042E075E0073CDFF8D8B0CDF800B0A4B2019472
S2140042F0B6F80710B6F805000223ABF10202FDF788
S214004300E7FB4FF6FF7A5045044604D17368C3F3C3
S2140043100F236B80E3E700230130CDE90033ABF1D8
S21400432002020223514680B2FDF7D2FB50451CBF65
S21400433000F1FF3080B207233B70A7F80140A7F8D2
S21400434003000022114604201EE0BAF1020F40F0DE
S214004350E580B6F80500FBF741FF002856D0037B42
S21400436099072FD52B88013BADF81A300DF11A02AC
S214004370B6F805000BA9FCF7B7FE024618BB0B23E0
S214004380BDF81A200B993B70FDF7FAFE4FE700BF09
S214004390E8060020E0060020F800002020010020AB
S2140043A0F20000201A010020B4010020DC060020E4
S2140043B000ED00E0D3A500008A010020500B00208D
S2140043C0BF01002052467368C3F30F236B805B4B1C
S2140043D030796988587001241C7059801A71B0E7CA
S2140043E0B6F80500FBF7FAFE80B1037B1A070FD577
S2140043F0E21E92B25249B6F80500FCF73FFE0246AE
S2140044000028E0D113233B700146BDE70122DAE71E
S2140044100322D8E7B6F80500FBF7E0FE00283FF4D5
S21400442006AF037B5B077FF502AFE21E4449B6F892
S214004430050092B2FCF722FEF9E6631F9BB2022B40
S21400444001D0102B6AD10022CDE90022DBB23D4A12
S214004450B6F80710B6F80500FDF73AFB4FF6FF73FF
S214004460984204463FF452AF2B880DF11A02043BE3
S2140044700BA9ADF81A30FCF737FE024608B16C807F
S214004480A5E7BDF81A200B997C8009233B70931C86
S2140044907B7021E7631F9BB2022B01D0102B3DD10E
S2140044A04FF0000ACDE900AADBB20393254AB6F81E
S2140044B00710B6F80500FDF70BFB4FF6FF7B5845D7
S2140044C0039B04463FF422AF0130CDE900AA1D4A03
S2140044D0594680B2FDF7FCFA2B8858458246A3F170
S2140044E0060318BF00F1FF3A0DF11A020BA9204689
S2140044F018BF1FFA8AFAADF81A30FCF7F5FD024627
S2140045000028BCD1BDF81A200B997C8011233B7083
S214004510131D7B70A7F804A0052035E7042256E794
S214004520CDE90D33084B0B930BA902230C93FDF733
S214004530FFFD7CE6C2F8B43AFFF7FBBA8A0100201A
S214004540BB010020BD01002010000020FEE7000097
S21400455008B5FDF707FD064B0649074A8B4201D30F
S214004560FBF7F0FD52F8040B43F8040BF6E700BF28
S21400457010000020C00000206CCA000038B50446B9
S21400458000F0BFFB0FCC044D0FC594E80F0085E884
S2140045900F00002038BD00BF2016002047F6FF732E
S2140045A09A42F0B562D0022962D8324E06EBC100BC
S2140045B016F831308578012DB8BF0125012B4FEA5A
S2140045C0C1070DD1C3785B1B23B1416831F91310C5
S2140045D0914202DC5819C0B2F0BD013B1BB2F3E7B2
S2140045E040680028F8D0B0F90030934204DBB0F9F8
S2140045F002309342B8BF134682883E44FF2A08BF63
S214004600B0F90640767807BFB0F908100122C82432
S214004610002218BF2821E41A94FBF1F4224414B2B5
S214004620721EA242A8BF22464FF47A7700EBC2045D
S2140046300132E188A46812B213FB014121EAE1715C
S214004640B24201F5FA71B1FBF7F104DA00EBC204ED
S214004650A4888C42EAD200EBC20232F8040C8842EC
S21400466028BF0846A84238BF2846B4E7FF20B3E76D
S2140046700020B1E72016002037B50446019178B136
S2140046800A4D2B787BB90A4B186000F08DF820464F
S214004690019900F07AF8031E18BF012304462B7018
S2140046A0204603B030BD0024FAE700BF44160020C1
S2140046B0401600200846114600F08AB8F7B5124D9D
S2140046C004466E680F4600200121CDE90032B0474F
S2140046D0DDE90032064604B10C342046394604F0C3
S2140046E001FA044618B92B680120984704463EB1E3
S2140046F000F0CEFB00B91CB100216B680846984755
S214004700204603B0F0BD00BF20000020F7B5114DD5
S21400471001926B6804460F46002001219847019AD3
S214004720064604B10C342046394600F0A9FA044681
S21400473018B92B680120984704463EB100F0A8FB44
S21400474000B91CB100216B6808469847204603B0A4
S214004750F0BD00BF2000002070470000431E03335A
S21400476006D8044B984228BF1846642838BF6420F1
S214004770704700BF40420F00431E012B03D9031FA2
S2140047805842584170470120704738B504460D46D8
S214004790002100F086FA2946204603F0B1FF0028E3
S2140047A00CBF2046002038BD10B5044603F038FA8A
S2140047B044B1054AD4F88430002B08BF1346034A98
S2140047C0136010BDA36FFFDE5947000018000020DD
S2140047D010B50C4603F036FA1CB103F08BFA01282C
S2140047E0FBD1034BBDE810405B680021032018474F
S2140047F02000002000B10C3003F05ABB00B10C3092
S21400480003F06CBB08B502460868FFF7A7FF086010
S2140048104868FFF7A3FF48608868FFF79FFF886037
S214004820C868FFF79BFF0B69C860581C03D00C488C
S214004830834228BF03460B614B69581C03D00848C7
S214004840834228BF034688694B61FFF787FF88616C
S21400485002B10C32BDE80840104603F0BDBF00BFF1
S21400486040420F002DE9F04F036F83B080460E469E
S21400487013B103898B4246D0D8F86C70002F46D00F
S214004880BC68002C43D0F968002940D0D8F88030A6
S2140048900193002B3FD04FF000094D46CA46A8F1C1
S2140048A00C0B00E0BC68C5EBC50204EB82040135C6
S2140048B0E289B24216D8228AB242584612D3B4F9D6
S2140048C01210B8F9FEC08C45A24601EAE17253DD2B
S2140048D098F8B810FFF762FE98F8042082428146E6
S2140048E04AD9F968A942DDD8BAF1000F42D00023B0
S2140048F0019C524619464046A047A8F80860C8F8EA
S21400490070A088F8C190002003B0BDE8F08F0320A7
S21400491003B0BDE8F08F99461D469A46A8F10C0BE9
S214004920C5EBC50204EB8204E289B2421AD8228A99
S214004930B24217D3B4F9122047F6FF739A4203D156
S214004940A2464FF0FF09D8E702EAE27298F8B810DC
S2140049505846FFF723FE98F804208242A246814676
S214004960CBD9F9680135A94201D9BC68D8E7BAF1B4
S214004970000FC2D10120C7E7A246B8E72DE9F04FE5
S214004980DFF8ACB1DFF8AC8185B00446009116467E
S2140049901F4604F0B4F8BBF8005004F0B9F800283D
S2140049A07AD1236FD8F8002093426AD003F0A2F998
S2140049B001284FD1DFF880A1DAF80030002B5BD059
S2140049C0E26E93426ED0D4F870C01868116810B1C9
S2140049D0884200F08180DCF80020204603F0DCFDF1
S2140049E00023054601260193D4F880908DF80F70B9
S2140049F0B9F1000F65D000220DF10F0311462046D5
S214004A00C84785B9E36ECAF80030236FC8F800308F
S214004A10019B0BB9002E3AD0009BCBF80030204605
S214004A2003F0A8FB05468EB1B5FA85F040F2A32246
S214004A303321400900F0BEF93946204603F0B8FDA0
S214004A40394B216F1B68A4F10C009847284605B027
S214004A50BDE8F08F012003F0F5F803F04BF90128CC
S214004A60FBD1324BDFF8D0A05B68002103209847CB
S214004A70DAF80030002BA3D1E36ED4F870C01968C2
S214004A80A9E7002B92D0009B9D428FD177BB0025D3
S214004A90284605B0BDE8F08F0023C8F8003004F0C3
S214004AA02FF87EE7D8F80010D4F870C000298CD014
S214004AB061458AD1009BEB1A18BF0123019300259C
S214004AC092E7217994F8C130994228BF19463A46B0
S214004AD0204603F0FDFA94E7D8F80010DCF8002032
S214004AE011B10968914210D0596876E7002ECED0F1
S214004AF0D4F8805001228DF80F205DB100220DF110
S214004B000F0311462046A847C1E70023019301265C
S214004B101D4669E7217994F8C130994228BF1946A5
S214004B20204603F0D5FAB2E7180000202000002047
S214004B3048160020501600204C160020F8B50546F2
S214004B400E46FDF7A7F9314607462846FFF78AFEC8
S214004B50044620B13846FDF7C7FA2046F8BD03469E
S214004B60024631462846FFF709FF04463846FDF759
S214004B70BBFA2046F8BD00BFF8B506460C4659B34A
S214004B800B6843B11B68013326D0CB681BB18B681A
S214004B90003B18BF012318466122412100F00AF9A4
S214004BA0204600F09FF9002386F8C430C6E91B4370
S214004BB0E7684FF6FF724FF01C0CD8B287420DD84C
S214004BC015460C4A002313600B4A294630461360EC
S214004BD0FFF7B4FF2846F8BD0023DCE7A1680CFB0E
S214004BE00011CD89954202D2002DEAD02A46013323
S214004BF0E3E700BF4C1600205016002000897047DF
S214004C000A7838B505461046FFF7B6FD60B14C7811
S214004C102046FFF7B1FD38B12243530704D4284697
S214004C20BDE8384003F090B9012038BD00B10C3023
S214004C30FFF7E6BF10B504460878FFF79DFD58B1AC
S214004C404A781046FFF798FD30B1042A04D0204673
S214004C50BDE8104003F0B0B9012010BD00B10C3023
S214004C60FFF7E8BF30B4DDE9024500B10C30CDE90E
S214004C70024530BC02F092BF00B10C3003F00EB912
S214004C8037B504460D460192FFF758FF38B9019A2A
S214004C902946204603B0BDE8304003F079B803B09B
S214004CA030BD03F03DBF13B504460020019100F06F
S214004CB017F954B1D4F88C3053B9019904F10C00AB
S214004CC002B0BDE8104003F022BAD4F88030FFDE10
S214004CD0022002B010BD38B5044648880D4600F0E4
S214004CE0FFF84CB1D4F88C304BB9294604F10C00CF
S214004CF0BDE8384003F0AAB9D4F88030FFDE0220C1
S214004D0038BD00F0EEB838B505460C46FDF7C2F8DB
S214004D10A9696B690C4023436B61FDF7E5F9002038
S214004D200CB9002138BD4FF40071FBE700B10C3020
S214004D3003F0CABB00B10C3003F0E2BB07B54FF47A
S214004D4000730A49ADF806300DF10602FFF7F2FFD0
S214004D50BDF80630B3F5007F05D1022808BF002055
S214004D6003B05DF804FB0120FAE700BF54160020EC
S214004D700846114603F0BCBA00B10C3003F090BBF5
S214004D8038B51546044600B10C3411B1204603F080
S214004D90D4FB25B12046BDE8384003F0D1BB38BD72
S214004DA0024B1960024B1860FEE700BF1C00002093
S214004DB05818002008B550B90548064B01601A601F
S214004DC0054B1A68054B1A601868FFF7E9FF08BD1F
S214004DD01C00002054180020401600205818002000
S214004DE0034618B15B7B0C3013B108475B78FFDED7
S214004DF00220704710B5044603F016FF2046032134
S214004E00BDE8104002F08CBF00B10C30FFF7F2BFD7
S214004E100149FFF7E5BF00BF018C00000149FFF71D
S214004E20DFBF00BFD98B000037B5437805460C4678
S214004E30BBB103F067FF616801900246284603F0A5
S214004E40FCFE206890FAA0F0000A03F0FDF8A17AB4
S214004E502089019A81F0010103F020FF002003B0B1
S214004E6030BD0220FBE71FB500B10C30CDE90112C2
S214004E70ADF80C3001A99DF818308DF80E30FFF70C
S214004E80D3FF05B05DF804FB002070470020704794
S214004E90014B1878704700BF5C180020431C08D0F0
S214004EA00449D1F83C311B0C1B0480B20343C1F803
S214004EB03C3170470040084010B5044608680A4672
S214004EC0FFF7ECFF236F4BB15B693BB11168013113
S214004ED004BF6FF00101116012681A60002010BD57
S214004EE0704770476C2231210120FFF763BF38B549
S214004EF00D46044600F034FFAC4042F210736409DD
S214004F005C436423B0FBF3F0B4FBF0F038BD000064
S214004F10034B1A689B88026083800020704700BF9E
S214004F202E0000200F4B0228D3F8883104D183F4DA
S214004F300010C0F340507047012805D113F4400F0D
S214004F400CBF01200020704750B9074AD2F8D400A1
S214004F5010F0010005D083F48000C0F38050704745
S214004F600020704700400E400081E00F0B4B5B882E
S214004F70B3F5E16F8BBF5A23C8235022782298429C
S214004F808CBF172310230B70054B1B7823B1904260
S214004F9094BF002001207047184670472E0000205E
S214004FA02C00002013B5234B1B78032B04463ED061
S214004FB00DF10701FFF7DAFF1E2C8CBF1E491F49B3
S214004FC09DF807204FF001038CBF01240024C1F890
S214004FD0083170B1194B4DF60171C3F80411120275
S214004FE003F1007342F44042C3F80421144BA3F8C3
S214004FF0E420134991F8E82022F00102024322F04F
S214005000020242EA4402D3B20E4A81F8E83012782D
S2140050106AB9B1F8E420A1F8E62023F0040242EAD7
S214005020800323F0080343EAC40381F8E83002B0A3
S21400503010BD00BF2E000020004008460040084477
S214005040001F00215F180020084B094AD3F888315A
S214005050DB4303F4FE1343F40053B3FA83F30E3337
S214005060A3EB4313013B1370704700BF00400E4094
S2140050703600002001280CD0022802D020B10020E3
S2140050807047054B18787047034B18780430C0B249
S21400509070470720704700BF3600002030B51F233A
S2140050A0B0FBF3F35C1CE5B2C3EB43134FF0FF34E5
S2140050B0AC40C01AE4430130E4B2C0B214600860E9
S2140050C030BD00002DE9F743404E414F96F8009062
S2140050D01546404AD2F8D820B9F1010F0446884652
S2140050E007EA020706D147EA006788F800000023AF
S2140050F02B6052E0384A1278904228BF1446002BA4
S21400510014BF0423002323440B708CB3013CE4B289
S2140051104FF030632B606A46204601A9FFF7BEFFBA
S214005120DDE900302D4A98F800C0127847EA00679B
S21400513047EA833747F47F5747F00807D2B1284A33
S2140051402849B3FA83F3B9F1020F18BF0A46202B99
S214005150C3F11F0012D0135CD9B22A6822F07F4335
S214005160BCF1000F0CD143F0306343F00403BFE7FB
S2140051701D4BCFE7FF214FF0FF30EEE7FF21ECE7B6
S214005180013003D0481EC0B2FD281BD922F07F4252
S21400519022F0040242F07F422A607288B2F5E16F84
S2140051A08CBF5A22C82227F47F57944227F008075C
S2140051B09ABF380A00F47F5043F6C870384303B0ED
S2140051C0BDE8F08343EA0163CFE700BF2E0000206E
S2140051D03F00C0E0001F00213600002062180020BB
S2140051E0B083E00FB883E00F0400000B73B50446ED
S2140051F0C820FFF7D7FE2C4B2C4D1878032801D07B
S214005200FF2C03D1FF20287002B070BD01282CD1DE
S214005210072C204628BF072001284FF0000301AACC
S2140052200DF1030138BF0120FFF74CFF0446204B69
S214005230204E019AC3F85821C6F8D8409DF80300BE
S2140052402870FFF7AFFE019A130203F4E06343EA07
S2140052501263194AA6F8E03012781AB9C6F8DC408C
S214005260A6F8E2309DF80300CEE790B9042C14D8D7
S21400527003460646201A01AA0DF10301C0B2FFF745
S21400528021FF4FF4800304465EB10C4AC2F8083191
S214005290CDE700231E461846ECE701231E460420F1
S2140052A0E8E7074AF2E700BF2E0000202D000020A6
S2140052B000400840001F00215F18002000400846FC
S2140052C00040084408B500F0C7FF094B094A00280B
S2140052D008BF1A46136823F47F115B0803F4FE1315
S2140052E00B431360044B4FF00072DA6108BD00BF39
S2140052F018410840004108400040084008B500F04A
S214005300ABFF064B4FF4001228B1C3F800214FF054
S21400531000621A6208BDC3F81821F8E70040084486
S214005320014B1868704700BF6418002070B505462A
S2140053300E46C0B201F00F01FFF7D9FDC6F3031108
S2140053400446C5F30720FFF7D2FDC6F30321044445
S214005350C5F30740FFF7CBFD204470BDD0F81031F1
S214005360012B38BF01232DE9F0479A46444B454FA1
S2140053709B69454E454D03F4E073A3F5C072804625
S21400538043485142514102685245424A0FD114786F
S2140053908C420CD198F8B8C03C78A44507D198F850
S2140053A005C03478A44502D1A888BDE8F087B3F5D7
S2140053B0C07FC0F800A011704AD1D8F8744024B15C
S2140053C02368082B58D994F838400F212046FFF759
S2140053D08EFDBAFA8AF3B0FA80F29B1A002BC4BF8D
S2140053E0C3F10F09D840264BD8BF4FF00F098245AE
S2140053F04FEA0440C3F8BC0003F1806340F6FF7236
S21400540038BF09F1FF39C3F8B82003F100734FEA3B
S2140054100921C3F8B810FFF789FFA88000F0A0FCA8
S21400542009F01F094FF4FA7304FA09F45C4341F6D5
S2140054306A03B0FBF3F0184BB4FBF0F40A204443C5
S2140054401C6098F8B8303B7098F805303370ABE7BE
S21400545098F8B830022B06D1104B1B78002B14BFDF
S214005460C8249624B1E7012B08D00C4B1B78002BE0
S21400547014BFF024B424A8E70024A6E73224A4E747
S2140054800060084035000020340000202E00002078
S214005490280000205D1800206418002062180020F4
S2140054A0FF290DD00F4B1048C3F850010B04090517
S2140054B003F4E02301F0F87119430C4BC3F85011C4
S2140054C0FF2A0DD0074B40F2F711C3F85011130115
S2140054D003F4F87302F007021A43044BC3F8502192
S2140054E0704700BF004008440000F701004008462F
S2140054F0F8B5144B1D6805B10C35284600F07AFE49
S214005500114F124E3B78C4B2A34201D13378A3B1F7
S214005510092C13D80E4B012C195D05D10D4B1B78A9
S214005520012B01D141F0400101F00F022846090984
S214005530FFF7B6FF00233C703370F8BD0024FA2155
S214005540F2E700BF40160020601800206118002017
S2140055501CA800002E00002070B5044600F0A8FB32
S214005560142200213148324E04F05CFF314B25787E
S2140055701A783149521B18BF01220A7022681A6035
S214005580C820A2889A80FFF70DFDD6F8D8202B4BAE
S2140055902B491340C6F8D8302A4BFF221A70D6F88B
S2140055A0D830294A23F08043022D23F017031AD15E
S2140055B04FF4EE40C2F824014FF48A42C1F8242189
S2140055C0012243F08043C1F82021194AC2F8D8309E
S2140055D01D4B0322C3F85821FFF78AFF1B4B0122FD
S2140055E01A70002070BD012D4FF007000ED1C2F8D2
S2140055F00C010620C1F80C011549C2F808114FF439
S214005600404143F00303C2F80411DEE7C2F80C0180
S2140056100520C1F80C01C020C2F8080143F0804301
S214005620812243F00403C1F80821CEE7D81F0021E9
S214005630001F00212E000020611800203F00C0E05F
S214005640004008462D000020004008445E18002058
S214005650C10040002DE9F0472D4C2E4B236000F092
S2140056607FFB4FF4FA7307464FF47A76B0FBF6F6F4
S21400567029482A4A7343190E1B02181841F10001E3
S214005680002304F019F9A0F580730546A36220B93B
S21400569060222B21FFF78EFB01254FF47A726A43B6
S2140056A04FF0000A53465008310204F005F91C4B2F
S2140056B019601C4BB7F57A7F4FEA056889460446A1
S2140056C018604FEA152505D270222B215046FFF7A9
S2140056D071FB01264FF47A71A8FB01087308C01805
S2140056E001FB05814FF0000341F10001324604F052
S2140056F0E3F80D4B023419600C4B49F10009A4087D
S214005700186044EA8974024B013C1C63BDE8F087CC
S214005710005008400211010020A1070040420F007F
S2140057207C180020781800207418002070180020BC
S214005730044B4FF00052C3F880211A60024B01223E
S2140057405A60704700E100E000500840054B020137
S214005750134401221A604FF4807303FA00F0024BE0
S2140057605866704700510844005008402DE9F0473D
S2140057701446054688461E46FCF78CFB022C00F0B5
S214005780AD800746FDF7DEFD664B6749674AD3F8EE
S214005790189091F815A0D2F8882B5FFA8AFA002A9A
S2140057A040F0A180FDF7D2FD614B624A1B6810688D
S2140057B0A3FB09314FEA8A7213F1004300FB09226A
S2140057C042EB0102D8F80010012C04BF0131891801
S2140057D0A2EB010208BFC8F80010B2F1804F0AF031
S2140057E0030AC0F08580544BD3F800E0534BD3F83F
S2140057F000804C4B21F04040D3F830C08A0F002385
S2140058004FF00041EEFB001308FB0033634581BFF9
S21400581001320CF1010CA3EB0C0302F00302A2EB25
S2140058200A02994588BF3F49DFF82CC184BF096B3F
S21400583002F1FF3202F003020CF80520A3EB090088
S214005840A2B1F10742BF3E4A41F61F71D166B207C8
S21400585042BF3B4A3B49D166710742BF314A0021ED
S2140058601167320742BF2F4A002111652D4A05F104
S214005870100102EB051E0901CEF80C31112353501E
S2140058809369D16DA3EB0909814526D34FF4807344
S214005890AB40194221D11CF80510002937D1002C45
S2140058A038D0F007136608D5254B274941F61F72F6
S2140058B040F20110DA66C866DA66B10706D5204BF4
